{
  "_format": "hh-sol-artifact-1",
  "contractName": "MockRewardAction",
  "sourceName": "contracts/mocks/MockRewardAction.sol",
  "abi": [
    {
      "inputs": [],
      "name": "claim",
      "outputs": [],
      "stateMutability": "nonpayable",
      "type": "function"
    }
  ],
  "bytecode": "0x608060405234801561001057600080fd5b50610290806100206000396000f3fe608060405234801561001057600080fd5b506004361061002b5760003560e01c80634e71d92d14610030575b600080fd5b61003861003a565b005b600061004461017d565b60058101546040516370a0823160e01b81529192506001600160a01b03169081906370a08231906100799030906004016101e0565b60206040518083038186803b15801561009157600080fd5b505afa1580156100a5573d6000803e3d6000fd5b505050506040513d601f19601f820116820180604052508101906100c991906101c8565b826007015411156100f55760405162461bcd60e51b81526004016100ec9061020d565b60405180910390fd5b600782015460405163a9059cbb60e01b81526001600160a01b0383169163a9059cbb916101269133916004016101f4565b602060405180830381600087803b15801561014057600080fd5b505af1158015610154573d6000803e3d6000fd5b505050506040513d601f19601f8201168201806040525081019061017891906101a1565b505050565b7fe4f120cd614eb45a6a4970efb62a09ca0ef39b3746aff6c70ba0a9bfc156170a90565b6000602082840312156101b2578081fd5b815180151581146101c1578182fd5b9392505050565b6000602082840312156101d9578081fd5b5051919050565b6001600160a01b0391909116815260200190565b6001600160a01b03929092168252602082015260400190565b6020808252602d908201527f526577617264416374696f6e3a3a636c61696d3a4e6f7420656e6f756768207460408201526c6f6b656e20746f20636c61696d60981b60608201526080019056fea2646970667358221220cdadd6d1a69d14afa058e2f5ab6473baebc7e50d00e791fb60392496cab327e764736f6c63430008000033",
  "linkReferences": {},
  "deployedLinkReferences": {}
}